{
  "_format": "hh-sol-artifact-1",
  "contractName": "contractERC1155",
  "sourceName": "contracts/contractERC1155.sol",
  "abi": [
    {
      "inputs": [],
      "stateMutability": "nonpayable",
      "type": "constructor"
    },
    {
      "inputs": [
        {
          "internalType": "address",
          "name": "sender",
          "type": "address"
        },
        {
          "internalType": "uint256",
          "name": "balance",
          "type": "uint256"
        },
        {
          "internalType": "uint256",
          "name": "needed",
          "type": "uint256"
        },
        {
          "internalType": "uint256",
          "name": "tokenId",
          "type": "uint256"
        }
      ],
      "name": "ERC1155InsufficientBalance",
      "type": "error"
    },
    {
      "inputs": [
        {
          "internalType": "address",
          "name": "approver",
          "type": "address"
        }
      ],
      "name": "ERC1155InvalidApprover",
      "type": "error"
    },
    {
      "inputs": [
        {
          "internalType": "uint256",
          "name": "idsLength",
          "type": "uint256"
        },
        {
          "internalType": "uint256",
          "name": "valuesLength",
          "type": "uint256"
        }
      ],
      "name": "ERC1155InvalidArrayLength",
      "type": "error"
    },
    {
      "inputs": [
        {
          "internalType": "address",
          "name": "operator",
          "type": "address"
        }
      ],
      "name": "ERC1155InvalidOperator",
      "type": "error"
    },
    {
      "inputs": [
        {
          "internalType": "address",
          "name": "receiver",
          "type": "address"
        }
      ],
      "name": "ERC1155InvalidReceiver",
      "type": "error"
    },
    {
      "inputs": [
        {
          "internalType": "address",
          "name": "sender",
          "type": "address"
        }
      ],
      "name": "ERC1155InvalidSender",
      "type": "error"
    },
    {
      "inputs": [
        {
          "internalType": "address",
          "name": "operator",
          "type": "address"
        },
        {
          "internalType": "address",
          "name": "owner",
          "type": "address"
        }
      ],
      "name": "ERC1155MissingApprovalForAll",
      "type": "error"
    },
    {
      "anonymous": false,
      "inputs": [
        {
          "indexed": true,
          "internalType": "address",
          "name": "account",
          "type": "address"
        },
        {
          "indexed": true,
          "internalType": "address",
          "name": "operator",
          "type": "address"
        },
        {
          "indexed": false,
          "internalType": "bool",
          "name": "approved",
          "type": "bool"
        }
      ],
      "name": "ApprovalForAll",
      "type": "event"
    },
    {
      "anonymous": false,
      "inputs": [
        {
          "indexed": true,
          "internalType": "address",
          "name": "operator",
          "type": "address"
        },
        {
          "indexed": true,
          "internalType": "address",
          "name": "from",
          "type": "address"
        },
        {
          "indexed": true,
          "internalType": "address",
          "name": "to",
          "type": "address"
        },
        {
          "indexed": false,
          "internalType": "uint256[]",
          "name": "ids",
          "type": "uint256[]"
        },
        {
          "indexed": false,
          "internalType": "uint256[]",
          "name": "values",
          "type": "uint256[]"
        }
      ],
      "name": "TransferBatch",
      "type": "event"
    },
    {
      "anonymous": false,
      "inputs": [
        {
          "indexed": true,
          "internalType": "address",
          "name": "operator",
          "type": "address"
        },
        {
          "indexed": true,
          "internalType": "address",
          "name": "from",
          "type": "address"
        },
        {
          "indexed": true,
          "internalType": "address",
          "name": "to",
          "type": "address"
        },
        {
          "indexed": false,
          "internalType": "uint256",
          "name": "id",
          "type": "uint256"
        },
        {
          "indexed": false,
          "internalType": "uint256",
          "name": "value",
          "type": "uint256"
        }
      ],
      "name": "TransferSingle",
      "type": "event"
    },
    {
      "anonymous": false,
      "inputs": [
        {
          "indexed": false,
          "internalType": "string",
          "name": "value",
          "type": "string"
        },
        {
          "indexed": true,
          "internalType": "uint256",
          "name": "id",
          "type": "uint256"
        }
      ],
      "name": "URI",
      "type": "event"
    },
    {
      "inputs": [],
      "name": "BOND",
      "outputs": [
        {
          "internalType": "uint256",
          "name": "",
          "type": "uint256"
        }
      ],
      "stateMutability": "view",
      "type": "function"
    },
    {
      "inputs": [],
      "name": "SHARES",
      "outputs": [
        {
          "internalType": "uint256",
          "name": "",
          "type": "uint256"
        }
      ],
      "stateMutability": "view",
      "type": "function"
    },
    {
      "inputs": [
        {
          "internalType": "address",
          "name": "account",
          "type": "address"
        },
        {
          "internalType": "uint256",
          "name": "id",
          "type": "uint256"
        }
      ],
      "name": "balanceOf",
      "outputs": [
        {
          "internalType": "uint256",
          "name": "",
          "type": "uint256"
        }
      ],
      "stateMutability": "view",
      "type": "function"
    },
    {
      "inputs": [
        {
          "internalType": "address[]",
          "name": "accounts",
          "type": "address[]"
        },
        {
          "internalType": "uint256[]",
          "name": "ids",
          "type": "uint256[]"
        }
      ],
      "name": "balanceOfBatch",
      "outputs": [
        {
          "internalType": "uint256[]",
          "name": "",
          "type": "uint256[]"
        }
      ],
      "stateMutability": "view",
      "type": "function"
    },
    {
      "inputs": [
        {
          "internalType": "address",
          "name": "account",
          "type": "address"
        },
        {
          "internalType": "address",
          "name": "operator",
          "type": "address"
        }
      ],
      "name": "isApprovedForAll",
      "outputs": [
        {
          "internalType": "bool",
          "name": "",
          "type": "bool"
        }
      ],
      "stateMutability": "view",
      "type": "function"
    },
    {
      "inputs": [],
      "name": "mintBond",
      "outputs": [],
      "stateMutability": "nonpayable",
      "type": "function"
    },
    {
      "inputs": [
        {
          "internalType": "address",
          "name": "to",
          "type": "address"
        },
        {
          "internalType": "uint256",
          "name": "amount",
          "type": "uint256"
        }
      ],
      "name": "mintBondShares",
      "outputs": [],
      "stateMutability": "nonpayable",
      "type": "function"
    },
    {
      "inputs": [
        {
          "internalType": "address",
          "name": "from",
          "type": "address"
        },
        {
          "internalType": "address",
          "name": "to",
          "type": "address"
        },
        {
          "internalType": "uint256[]",
          "name": "ids",
          "type": "uint256[]"
        },
        {
          "internalType": "uint256[]",
          "name": "values",
          "type": "uint256[]"
        },
        {
          "internalType": "bytes",
          "name": "data",
          "type": "bytes"
        }
      ],
      "name": "safeBatchTransferFrom",
      "outputs": [],
      "stateMutability": "nonpayable",
      "type": "function"
    },
    {
      "inputs": [
        {
          "internalType": "address",
          "name": "from",
          "type": "address"
        },
        {
          "internalType": "address",
          "name": "to",
          "type": "address"
        },
        {
          "internalType": "uint256",
          "name": "id",
          "type": "uint256"
        },
        {
          "internalType": "uint256",
          "name": "value",
          "type": "uint256"
        },
        {
          "internalType": "bytes",
          "name": "data",
          "type": "bytes"
        }
      ],
      "name": "safeTransferFrom",
      "outputs": [],
      "stateMutability": "nonpayable",
      "type": "function"
    },
    {
      "inputs": [
        {
          "internalType": "address",
          "name": "operator",
          "type": "address"
        },
        {
          "internalType": "bool",
          "name": "approved",
          "type": "bool"
        }
      ],
      "name": "setApprovalForAll",
      "outputs": [],
      "stateMutability": "nonpayable",
      "type": "function"
    },
    {
      "inputs": [
        {
          "internalType": "bytes4",
          "name": "interfaceId",
          "type": "bytes4"
        }
      ],
      "name": "supportsInterface",
      "outputs": [
        {
          "internalType": "bool",
          "name": "",
          "type": "bool"
        }
      ],
      "stateMutability": "view",
      "type": "function"
    },
    {
      "inputs": [
        {
          "internalType": "uint256",
          "name": "",
          "type": "uint256"
        }
      ],
      "name": "uri",
      "outputs": [
        {
          "internalType": "string",
          "name": "",
          "type": "string"
        }
      ],
      "stateMutability": "view",
      "type": "function"
    }
  ],
  "bytecode": "0x608060405234801561001057600080fd5b506040518060600160405280603f81526020016123e4603f91396100398161003f60201b60201c565b50610374565b806002908161004e91906102a2565b5050565b600081519050919050565b7f4e487b7100000000000000000000000000000000000000000000000000000000600052604160045260246000fd5b7f4e487b7100000000000000000000000000000000000000000000000000000000600052602260045260246000fd5b600060028204905060018216806100d357607f821691505b6020821081036100e6576100e561008c565b5b50919050565b60008190508160005260206000209050919050565b60006020601f8301049050919050565b600082821b905092915050565b60006008830261014e7fffffffffffffffffffffffffffffffffffffffffffffffffffffffffffffffff82610111565b6101588683610111565b95508019841693508086168417925050509392505050565b6000819050919050565b6000819050919050565b600061019f61019a61019584610170565b61017a565b610170565b9050919050565b6000819050919050565b6101b983610184565b6101cd6101c5826101a6565b84845461011e565b825550505050565b600090565b6101e26101d5565b6101ed8184846101b0565b505050565b5b81811015610211576102066000826101da565b6001810190506101f3565b5050565b601f82111561025657610227816100ec565b61023084610101565b8101602085101561023f578190505b61025361024b85610101565b8301826101f2565b50505b505050565b600082821c905092915050565b60006102796000198460080261025b565b1980831691505092915050565b60006102928383610268565b9150826002028217905092915050565b6102ab82610052565b67ffffffffffffffff8111156102c4576102c361005d565b5b6102ce82546100bb565b6102d9828285610215565b600060209050601f83116001811461030c57600084156102fa578287015190505b6103048582610286565b86555061036c565b601f19841661031a866100ec565b60005b828110156103425784890151825560018201915060208501945060208101905061031d565b8683101561035f578489015161035b601f891682610268565b8355505b6001600288020188555050505b505050505050565b612061806103836000396000f3fe608060405234801561001057600080fd5b50600436106100b35760003560e01c8063a22cb46511610071578063a22cb4651461019e578063b12cba19146101ba578063c1254a55146101d6578063c1c1d218146101f4578063e985e9c514610212578063f242432a14610242576100b3565b8062fdd58e146100b857806301ffc9a7146100e85780630e89341c146101185780632eb2c2d6146101485780634e1273f41461016457806399137ced14610194575b600080fd5b6100d260048036038101906100cd91906114ba565b61025e565b6040516100df9190611509565b60405180910390f35b61010260048036038101906100fd919061157c565b6102b8565b60405161010f91906115c4565b60405180910390f35b610132600480360381019061012d91906115df565b61039a565b60405161013f919061169c565b60405180910390f35b610162600480360381019061015d91906118bb565b61042e565b005b61017e60048036038101906101799190611a4d565b6104d6565b60405161018b9190611b83565b60405180910390f35b61019c6105df565b005b6101b860048036038101906101b39190611bd1565b6105fe565b005b6101d460048036038101906101cf91906114ba565b610614565b005b6101de610634565b6040516101eb9190611509565b60405180910390f35b6101fc610639565b6040516102099190611509565b60405180910390f35b61022c60048036038101906102279190611c11565b61063e565b60405161023991906115c4565b60405180910390f35b61025c60048036038101906102579190611c51565b6106d2565b005b600080600083815260200190815260200160002060008473ffffffffffffffffffffffffffffffffffffffff1673ffffffffffffffffffffffffffffffffffffffff16815260200190815260200160002054905092915050565b60007fd9b67a26000000000000000000000000000000000000000000000000000000007bffffffffffffffffffffffffffffffffffffffffffffffffffffffff1916827bffffffffffffffffffffffffffffffffffffffffffffffffffffffff1916148061038357507f0e89341c000000000000000000000000000000000000000000000000000000007bffffffffffffffffffffffffffffffffffffffffffffffffffffffff1916827bffffffffffffffffffffffffffffffffffffffffffffffffffffffff1916145b8061039357506103928261077a565b5b9050919050565b6060600280546103a990611d17565b80601f01602080910402602001604051908101604052809291908181526020018280546103d590611d17565b80156104225780601f106103f757610100808354040283529160200191610422565b820191906000526020600020905b81548152906001019060200180831161040557829003601f168201915b50505050509050919050565b60006104386107e4565b90508073ffffffffffffffffffffffffffffffffffffffff168673ffffffffffffffffffffffffffffffffffffffff161415801561047d575061047b868261063e565b155b156104c15780866040517fe237d9220000000000000000000000000000000000000000000000000000000081526004016104b8929190611d57565b60405180910390fd5b6104ce86868686866107ec565b505050505050565b6060815183511461052257815183516040517f5b059991000000000000000000000000000000000000000000000000000000008152600401610519929190611d80565b60405180910390fd5b6000835167ffffffffffffffff81111561053f5761053e6116c3565b5b60405190808252806020026020018201604052801561056d5781602001602082028036833780820191505090505b50905060005b84518110156105d4576105aa61059282876108e490919063ffffffff16565b6105a583876108f890919063ffffffff16565b61025e565b8282815181106105bd576105bc611da9565b5b602002602001018181525050806001019050610573565b508091505092915050565b6105fc33600260016040518060200160405280600081525061090c565b565b6106106106096107e4565b83836109a5565b5050565b610630826001836040518060200160405280600081525061090c565b5050565b600181565b600281565b6000600160008473ffffffffffffffffffffffffffffffffffffffff1673ffffffffffffffffffffffffffffffffffffffff16815260200190815260200160002060008373ffffffffffffffffffffffffffffffffffffffff1673ffffffffffffffffffffffffffffffffffffffff16815260200190815260200160002060009054906101000a900460ff16905092915050565b60006106dc6107e4565b90508073ffffffffffffffffffffffffffffffffffffffff168673ffffffffffffffffffffffffffffffffffffffff1614158015610721575061071f868261063e565b155b156107655780866040517fe237d92200000000000000000000000000000000000000000000000000000000815260040161075c929190611d57565b60405180910390fd5b6107728686868686610b15565b505050505050565b60007f01ffc9a7000000000000000000000000000000000000000000000000000000007bffffffffffffffffffffffffffffffffffffffffffffffffffffffff1916827bffffffffffffffffffffffffffffffffffffffffffffffffffffffff1916149050919050565b600033905090565b600073ffffffffffffffffffffffffffffffffffffffff168473ffffffffffffffffffffffffffffffffffffffff160361085e5760006040517f57f447ce0000000000000000000000000000000000000000000000000000000081526004016108559190611dd8565b60405180910390fd5b600073ffffffffffffffffffffffffffffffffffffffff168573ffffffffffffffffffffffffffffffffffffffff16036108d05760006040517f01a835140000000000000000000000000000000000000000000000000000000081526004016108c79190611dd8565b60405180910390fd5b6108dd8585858585610c20565b5050505050565b600060208202602084010151905092915050565b600060208202602084010151905092915050565b600073ffffffffffffffffffffffffffffffffffffffff168473ffffffffffffffffffffffffffffffffffffffff160361097e5760006040517f57f447ce0000000000000000000000000000000000000000000000000000000081526004016109759190611dd8565b60405180910390fd5b60008061098b8585610cd2565b9150915061099d600087848487610c20565b505050505050565b600073ffffffffffffffffffffffffffffffffffffffff168273ffffffffffffffffffffffffffffffffffffffff1603610a175760006040517fced3e100000000000000000000000000000000000000000000000000000000008152600401610a0e9190611dd8565b60405180910390fd5b80600160008573ffffffffffffffffffffffffffffffffffffffff1673ffffffffffffffffffffffffffffffffffffffff16815260200190815260200160002060008473ffffffffffffffffffffffffffffffffffffffff1673ffffffffffffffffffffffffffffffffffffffff16815260200190815260200160002060006101000a81548160ff0219169083151502179055508173ffffffffffffffffffffffffffffffffffffffff168373ffffffffffffffffffffffffffffffffffffffff167f17307eab39ab6107e8899845ad3d59bd9653f200f220920489ca2b5937696c3183604051610b0891906115c4565b60405180910390a3505050565b600073ffffffffffffffffffffffffffffffffffffffff168473ffffffffffffffffffffffffffffffffffffffff1603610b875760006040517f57f447ce000000000000000000000000000000000000000000000000000000008152600401610b7e9190611dd8565b60405180910390fd5b600073ffffffffffffffffffffffffffffffffffffffff168573ffffffffffffffffffffffffffffffffffffffff1603610bf95760006040517f01a83514000000000000000000000000000000000000000000000000000000008152600401610bf09190611dd8565b60405180910390fd5b600080610c068585610cd2565b91509150610c178787848487610c20565b50505050505050565b610c2c85858585610d02565b600073ffffffffffffffffffffffffffffffffffffffff168473ffffffffffffffffffffffffffffffffffffffff1614610ccb576000610c6a6107e4565b90506001845103610cba576000610c8b6000866108f890919063ffffffff16565b90506000610ca36000866108f890919063ffffffff16565b9050610cb38389898585896110aa565b5050610cc9565b610cc881878787878761125e565b5b505b5050505050565b60608060405191506001825283602083015260408201905060018152826020820152604081016040529250929050565b8051825114610d4c57815181516040517f5b059991000000000000000000000000000000000000000000000000000000008152600401610d43929190611d80565b60405180910390fd5b6000610d566107e4565b905060005b8351811015610f65576000610d7982866108f890919063ffffffff16565b90506000610d9083866108f890919063ffffffff16565b9050600073ffffffffffffffffffffffffffffffffffffffff168873ffffffffffffffffffffffffffffffffffffffff1614610ebd57600080600084815260200190815260200160002060008a73ffffffffffffffffffffffffffffffffffffffff1673ffffffffffffffffffffffffffffffffffffffff16815260200190815260200160002054905081811015610e6557888183856040517f03dee4c5000000000000000000000000000000000000000000000000000000008152600401610e5c9493929190611df3565b60405180910390fd5b81810360008085815260200190815260200160002060008b73ffffffffffffffffffffffffffffffffffffffff1673ffffffffffffffffffffffffffffffffffffffff16815260200190815260200160002081905550505b600073ffffffffffffffffffffffffffffffffffffffff168773ffffffffffffffffffffffffffffffffffffffff1614610f58578060008084815260200190815260200160002060008973ffffffffffffffffffffffffffffffffffffffff1673ffffffffffffffffffffffffffffffffffffffff1681526020019081526020016000206000828254610f509190611e67565b925050819055505b5050806001019050610d5b565b506001835103611024576000610f856000856108f890919063ffffffff16565b90506000610f9d6000856108f890919063ffffffff16565b90508573ffffffffffffffffffffffffffffffffffffffff168773ffffffffffffffffffffffffffffffffffffffff168473ffffffffffffffffffffffffffffffffffffffff167fc3d58168c5ae7397731d063d5bbf3d657854427343f4c083240f7aacaa2d0f628585604051611015929190611d80565b60405180910390a450506110a3565b8373ffffffffffffffffffffffffffffffffffffffff168573ffffffffffffffffffffffffffffffffffffffff168273ffffffffffffffffffffffffffffffffffffffff167f4a39dc06d4c0dbc64b70af90fd698a233a518aa5d07e595d983b8c0526c8f7fb868660405161109a929190611e9b565b60405180910390a45b5050505050565b60008473ffffffffffffffffffffffffffffffffffffffff163b1115611256578373ffffffffffffffffffffffffffffffffffffffff1663f23a6e6187878686866040518663ffffffff1660e01b815260040161110b959493929190611f27565b6020604051808303816000875af192505050801561114757506040513d601f19601f820116820180604052508101906111449190611f96565b60015b6111cb573d8060008114611177576040519150601f19603f3d011682016040523d82523d6000602084013e61117c565b606091505b5060008151036111c357846040517f57f447ce0000000000000000000000000000000000000000000000000000000081526004016111ba9190611dd8565b60405180910390fd5b805181602001fd5b63f23a6e6160e01b7bffffffffffffffffffffffffffffffffffffffffffffffffffffffff1916817bffffffffffffffffffffffffffffffffffffffffffffffffffffffff19161461125457846040517f57f447ce00000000000000000000000000000000000000000000000000000000815260040161124b9190611dd8565b60405180910390fd5b505b505050505050565b60008473ffffffffffffffffffffffffffffffffffffffff163b111561140a578373ffffffffffffffffffffffffffffffffffffffff1663bc197c8187878686866040518663ffffffff1660e01b81526004016112bf959493929190611fc3565b6020604051808303816000875af19250505080156112fb57506040513d601f19601f820116820180604052508101906112f89190611f96565b60015b61137f573d806000811461132b576040519150601f19603f3d011682016040523d82523d6000602084013e611330565b606091505b50600081510361137757846040517f57f447ce00000000000000000000000000000000000000000000000000000000815260040161136e9190611dd8565b60405180910390fd5b805181602001fd5b63bc197c8160e01b7bffffffffffffffffffffffffffffffffffffffffffffffffffffffff1916817bffffffffffffffffffffffffffffffffffffffffffffffffffffffff19161461140857846040517f57f447ce0000000000000000000000000000000000000000000000000000000081526004016113ff9190611dd8565b60405180910390fd5b505b505050505050565b6000604051905090565b600080fd5b600080fd5b600073ffffffffffffffffffffffffffffffffffffffff82169050919050565b600061145182611426565b9050919050565b61146181611446565b811461146c57600080fd5b50565b60008135905061147e81611458565b92915050565b6000819050919050565b61149781611484565b81146114a257600080fd5b50565b6000813590506114b48161148e565b92915050565b600080604083850312156114d1576114d061141c565b5b60006114df8582860161146f565b92505060206114f0858286016114a5565b9150509250929050565b61150381611484565b82525050565b600060208201905061151e60008301846114fa565b92915050565b60007fffffffff0000000000000000000000000000000000000000000000000000000082169050919050565b61155981611524565b811461156457600080fd5b50565b60008135905061157681611550565b92915050565b6000602082840312156115925761159161141c565b5b60006115a084828501611567565b91505092915050565b60008115159050919050565b6115be816115a9565b82525050565b60006020820190506115d960008301846115b5565b92915050565b6000602082840312156115f5576115f461141c565b5b6000611603848285016114a5565b91505092915050565b600081519050919050565b600082825260208201905092915050565b60005b8381101561164657808201518184015260208101905061162b565b60008484015250505050565b6000601f19601f8301169050919050565b600061166e8261160c565b6116788185611617565b9350611688818560208601611628565b61169181611652565b840191505092915050565b600060208201905081810360008301526116b68184611663565b905092915050565b600080fd5b7f4e487b7100000000000000000000000000000000000000000000000000000000600052604160045260246000fd5b6116fb82611652565b810181811067ffffffffffffffff8211171561171a576117196116c3565b5b80604052505050565b600061172d611412565b905061173982826116f2565b919050565b600067ffffffffffffffff821115611759576117586116c3565b5b602082029050602081019050919050565b600080fd5b600061178261177d8461173e565b611723565b905080838252602082019050602084028301858111156117a5576117a461176a565b5b835b818110156117ce57806117ba88826114a5565b8452602084019350506020810190506117a7565b5050509392505050565b600082601f8301126117ed576117ec6116be565b5b81356117fd84826020860161176f565b91505092915050565b600080fd5b600067ffffffffffffffff821115611826576118256116c3565b5b61182f82611652565b9050602081019050919050565b82818337600083830152505050565b600061185e6118598461180b565b611723565b90508281526020810184848401111561187a57611879611806565b5b61188584828561183c565b509392505050565b600082601f8301126118a2576118a16116be565b5b81356118b284826020860161184b565b91505092915050565b600080600080600060a086880312156118d7576118d661141c565b5b60006118e58882890161146f565b95505060206118f68882890161146f565b945050604086013567ffffffffffffffff81111561191757611916611421565b5b611923888289016117d8565b935050606086013567ffffffffffffffff81111561194457611943611421565b5b611950888289016117d8565b925050608086013567ffffffffffffffff81111561197157611970611421565b5b61197d8882890161188d565b9150509295509295909350565b600067ffffffffffffffff8211156119a5576119a46116c3565b5b602082029050602081019050919050565b60006119c96119c48461198a565b611723565b905080838252602082019050602084028301858111156119ec576119eb61176a565b5b835b81811015611a155780611a01888261146f565b8452602084019350506020810190506119ee565b5050509392505050565b600082601f830112611a3457611a336116be565b5b8135611a448482602086016119b6565b91505092915050565b60008060408385031215611a6457611a6361141c565b5b600083013567ffffffffffffffff811115611a8257611a81611421565b5b611a8e85828601611a1f565b925050602083013567ffffffffffffffff811115611aaf57611aae611421565b5b611abb858286016117d8565b9150509250929050565b600081519050919050565b600082825260208201905092915050565b6000819050602082019050919050565b611afa81611484565b82525050565b6000611b0c8383611af1565b60208301905092915050565b6000602082019050919050565b6000611b3082611ac5565b611b3a8185611ad0565b9350611b4583611ae1565b8060005b83811015611b76578151611b5d8882611b00565b9750611b6883611b18565b925050600181019050611b49565b5085935050505092915050565b60006020820190508181036000830152611b9d8184611b25565b905092915050565b611bae816115a9565b8114611bb957600080fd5b50565b600081359050611bcb81611ba5565b92915050565b60008060408385031215611be857611be761141c565b5b6000611bf68582860161146f565b9250506020611c0785828601611bbc565b9150509250929050565b60008060408385031215611c2857611c2761141c565b5b6000611c368582860161146f565b9250506020611c478582860161146f565b9150509250929050565b600080600080600060a08688031215611c6d57611c6c61141c565b5b6000611c7b8882890161146f565b9550506020611c8c8882890161146f565b9450506040611c9d888289016114a5565b9350506060611cae888289016114a5565b925050608086013567ffffffffffffffff811115611ccf57611cce611421565b5b611cdb8882890161188d565b9150509295509295909350565b7f4e487b7100000000000000000000000000000000000000000000000000000000600052602260045260246000fd5b60006002820490506001821680611d2f57607f821691505b602082108103611d4257611d41611ce8565b5b50919050565b611d5181611446565b82525050565b6000604082019050611d6c6000830185611d48565b611d796020830184611d48565b9392505050565b6000604082019050611d9560008301856114fa565b611da260208301846114fa565b9392505050565b7f4e487b7100000000000000000000000000000000000000000000000000000000600052603260045260246000fd5b6000602082019050611ded6000830184611d48565b92915050565b6000608082019050611e086000830187611d48565b611e1560208301866114fa565b611e2260408301856114fa565b611e2f60608301846114fa565b95945050505050565b7f4e487b7100000000000000000000000000000000000000000000000000000000600052601160045260246000fd5b6000611e7282611484565b9150611e7d83611484565b9250828201905080821115611e9557611e94611e38565b5b92915050565b60006040820190508181036000830152611eb58185611b25565b90508181036020830152611ec98184611b25565b90509392505050565b600081519050919050565b600082825260208201905092915050565b6000611ef982611ed2565b611f038185611edd565b9350611f13818560208601611628565b611f1c81611652565b840191505092915050565b600060a082019050611f3c6000830188611d48565b611f496020830187611d48565b611f5660408301866114fa565b611f6360608301856114fa565b8181036080830152611f758184611eee565b90509695505050505050565b600081519050611f9081611550565b92915050565b600060208284031215611fac57611fab61141c565b5b6000611fba84828501611f81565b91505092915050565b600060a082019050611fd86000830188611d48565b611fe56020830187611d48565b8181036040830152611ff78186611b25565b9050818103606083015261200b8185611b25565b9050818103608083015261201f8184611eee565b9050969550505050505056fea26469706673582212207dda44d501fb1a46d8631d1a6a72c98ff91026f648ad7243ed74507002b997af64736f6c634300081b0033697066733a2f2f516d643679315344457153557a346b44786174556256744c4b477a76424b766f6438586e4d596558315767775a6a2f7b69647d2e6a736f6e",
  "linkReferences": {},
  "deployedLinkReferences": {}
}